:100000000C942A000C9445000C9445000C94450077
:100010000C9445000C9445000C9445000C9445004C
:100020000C9445000C948C020C9445000C94A60191
:100030000C9445000C946F010C9445000C94450001
:100040000C9445000C9445000C9445000C9445001C
:100050000C94450011241FBECFE5D4E0DEBFCDBF18
:1000600011E0A0E6B0E0ECE4F5E102C005900D92ED
:10007000A632B107D9F712E0A6E2B1E001C01D92A5
:10008000AD3FB107E1F70C9447000C940000CFE5B9
:10009000D4E0DEBFCDBF40E050E067E1EAEEF1E042
:1000A000CA018D969C0197FF03C09A0124553F4FCA
:1000B0002078821B930B0A9681939193615045544B
:1000C0005F4F67FFEDCF81E090E0A0E0B0E080936C
:1000D0001A0290931B02A0931C02B0931D020E946F
:1000E000E90060E07BE480E090E00E94B90080E6F7
:1000F00090E00E94280483E690E00E9428048FEF9D
:100100008ABB87BB84BB81BB0E94880278941BBAE0
:1001100018BA15BA12BA0E948404E199FECFE7E535
:10012000F2E0A0E0B0E088E1182E0E94690A80E6C3
:1001300090E00E9428048CE790E00E942804C0E030
:1001400060E070E08C2F0E94CC03CF5FC831C0F319
:100150001092270110922601109229011092280175
:1001600086E291E00E94970688E291E00E94F20503
:10017000F7CFDC01CB0173E0880F991FAA1FBB1FCB
:100180007A95D1F79C01AD01220F331F441F551FF3
:1001900080509C4DAB40BF4FBC01CD010E94470A2F
:1001A000DA01C901019789B9892F992780BD08957E
:1001B00040E450E06AE271E08FE192E00E94F001D9
:1001C00040E450E06AE671E088E292E00E94F001CB
:1001D00008950E94D8001092AB011092AA0188EDF8
:1001E0008AB960E875E280E090E00E94B9008FEF84
:1001F00080931E0210922702109231021092300258
:10020000789408959093AB018093AA0108958FE1AB
:1002100092E0089588E292E00895982F80911E025E
:100220008823E1F39CB910921E020895CF93DF93C7
:10023000EC018091210290912202009769F0809157
:10024000230290912402009739F08FE192E00E94FE
:10025000FA0188838FEF90E0DF91CF910895CF93DB
:10026000DF93CDB7DEB721970FB6F894DEBF0FBE90
:10027000CDBFCE0101960E941601882319F0898115
:10028000992702C08FEF9FEF21960FB6F894DEBF3B
:100290000FBECDBFDF91CF9108951092240210922E
:1002A000230208958091230290912402892B19F44E
:1002B0008FEF90E0089580E090E00895682F88E245
:1002C00092E00E945302992708958FEF80932702AE
:1002D00088E292E00E94FA010E940D0108951F92A7
:1002E0000F920FB60F9211242F933F934F935F936A
:1002F0006F937F938F939F93AF93BF93EF93FF93EE
:1003000080912702882371F080912C0290912D0218
:10031000892B31F088E292E00E94FA018CB905C085
:10032000109227028FEF80931E02FF91EF91BF91F1
:10033000AF919F918F917F916F915F914F913F917D
:100340002F910F900FBE0F901F9018951F920F9234
:100350000FB60F9211242F933F934F935F936F9398
:100360007F938F939F93AF93BF93EF93FF936CB162
:100370008091AA019091AB01892B39F0E091AA01FB
:10038000F091AB01862F09951AC06B3121F488E0FA
:1003900081BDF894FFCF6A3019F481E08093B301F6
:1003A0008FE192E00E945302882349F48091300249
:1003B0009091310201969093310280933002FF9127
:1003C000EF91BF91AF919F918F917F916F915F91CD
:1003D0004F913F912F910F900FBE0F901F90189546
:1003E000FC017183608353834283178216821582D6
:1003F00014820895CF93DF93EC01E0E02C813D81DE
:1004000021153105B9F08E819F81E881F981E80FCE
:10041000F91FE08101969F838E836A817B81861715
:10042000970720F00E94330A9F838E83215030402B
:100430003D832C838E2F9927DF91CF910895CF9301
:10044000DF93FC01EB012481358162177307A0F46F
:1004500086819781860F971F978386836281738138
:100460008617970720F00E94330A978386832C1BF8
:100470003D0B3583248302C015821482DF91CF9116
:100480000895FC018681978122813381860F971F11
:10049000B9010E94330A0190F081E02DE80FF91FA5
:1004A000808199270895CF93DF93EC01462F2C810B
:1004B0003D816A817B812617370798F48E819F8161
:1004C000820F931F0E94330AE881F981E80FF91F18
:1004D00040838C819D8101969D838C838FEF90E07A
:1004E00002C080E090E0DF91CF910895FC0140E0F0
:1004F00050E024813581828193812817390710F4D7
:1005000041E050E0CA010895FC011582148208956B
:1005100081E083BF89BF08951F920F920FB60F929B
:1005200011242F933F938F939F93AF93BF93EF9398
:10053000FF938091320290913302A0913402B091E6
:1005400035020196A11DB11D8093320290933302B2
:10055000A0933402B09335022091B1013091B201E1
:100560002115310509F0F3C08091AF019091B001E0
:1005700001969093B0018093AF010B9720F03093D8
:10058000B0012093AF018091AF019091B00186300E
:10059000910509F485C087309105A0F4823091055A
:1005A00009F442C08330910528F4009731F1019796
:1005B00071F1CDC08430910509F45AC0059708F057
:1005C00063C040C08930910509F48EC08A3091051E
:1005D00040F48730910509F46FC0089709F478C09A
:1005E000B6C08B30910509F497C08B30910508F4A3
:1005F00087C00C9709F49CC0AAC0809157028BBB9E
:100600008091620285BB80916D0288BB0000809161
:1006100058028BBB8091630285BB80916E0288BBC0
:100620000000000000000000809159028BBB809107
:10063000640285BB80916F0288BB8BE00000815013
:1006400087FFFCCF80915A028BBB8091650285BBEE
:100650008091700288BB81E090E09093B20180931A
:10066000B10183E090E09093B0018093AF016FC03F
:1006700080915B028BBB8091660285BB8091710289
:1006800088BB82E090E05FC080915C028BBB809170
:10069000670285BB8091720288BB84E090E053C002
:1006A00080915D028BBB8091680285BB8091730253
:1006B00088BB88E090E047C080915E028BBB809150
:1006C000690285BB8091740288BB80E190E03BC0E9
:1006D00080915F028BBB80916A0285BB809175021D
:1006E00088BB80E290E02FC0809160028BBB80913C
:1006F0006B0285BB8091760288BB80E490E023C0CA
:10070000809161028BBB80916C0285BB80917702E6
:1007100088BB80E890E017C0809162028BBB80911B
:100720006D0285BB8091780288BB80E091E00BC0B0
:10073000809163028BBB80916E0285BB80917902B0
:1007400088BB80E092E09093B2018093B1018091E8
:10075000B1019091B20101979093B2018093B101E0
:1007600080917802882349F081E2A6E3B2E0E7E5D0
:10077000F2E00D9001928A95E1F710927802FF91D4
:10078000EF91BF91AF919F918F913F912F910F90DA
:100790000FBE0F901F901895CF93DF93982F8091E5
:1007A00078028130E1F36132710568F0669F900153
:1007B000679F300D769F300D1124B90185E0769545
:1007C00067958A95E1F738E06030730710F06FEFB6
:1007D00077E0892F869586958695C1E0D0E0282F11
:1007E00033279770AE0102C0440F551F9A95E2F768
:1007F000B42FB0958BE090E0289FF001299FF00D79
:10080000389FF00D1124EA5CFD4F20E030E0AAE0B3
:10081000CE01022E02C0880F991F0A94E2F78623A8
:100820009723892B19F08081842B02C080818B2330
:100830008083A1502F5F3F4F3196A7FFE9CF81E022
:1008400080937802DF91CF9108950E940D01089561
:100850001F93CF93DF93EC0110E08881882369F028
:10086000FE01E10FF11D80810E9425041F5FFE0142
:10087000E10FF11D8081882399F7DF91CF911F91BE
:100880000895CF93DF93CDB7DEB722970FB6F894D4
:10089000DEBF0FBECDBF4AE050E0BE016F5F7F4FAD
:1008A00099270E94020ACE0101960E9428042296EE
:1008B0000FB6F894DEBF0FBECDBFDF91CF91089584
:1008C0000E942F0199270895CF93DF938091B30160
:1008D0008823E1F389E792E004C089910E9425040E
:1008E000CE01EC010E946004888388818A30A9F7D8
:1008F000188283E890E00E9428041092B30189E7EF
:1009000092E0DF91CF910895E19903C081E090E0FA
:10091000089586E890E00E94280480E090E0089521
:100920001F93CF93DF93C8E1D0E00E948404E19944
:10093000FECF13E1E7E5F2E088E1DE01182E0E9428
:10094000690A689684E690E00E94AF05115017FF8F
:10095000F1CFDF91CF911F910895BF92CF92DF9297
:10096000EF92FF920F931F93CF93DF9321E0C22E5C
:10097000C8E1D0E00E948404E199FECF89E990E0CB
:100980000E94280481E00E94410480E20E94250424
:1009900081E20E942504BB240E94640480917902B4
:1009A000883709F454C080917902883509F44FC022
:1009B000C39484E18C1560F08C2D0E944104E9E021
:1009C000EC1518F080E20E94250481E20E942504C3
:1009D000DD2420E030E080917902882361F180916C
:1009E0007A02882341F199E7E92E92E0F92EE20E8E
:1009F000F31EF70180810E94DB05082F112784E098
:100A0000000F111F8A95E1F7F70181810E94DB0534
:100A1000080F111D8D2DD394B8010E94CC03F2E074
:100A2000BF0E2B2D3327F901E758FD4F8081882316
:100A300011F08181D6CFE7E5F2E088E1DE01182EE2
:100A40000E947A0A689684E18C1508F0A4CFDF91A1
:100A5000CF911F910F91FF90EF90DF90CF90BF90BB
:100A60000895CF93DF93C8E1D0E085EB90E00E943A
:100A700028040E948404E199FECF20E08FED91E0EC
:100A8000DE01022E0E946E0A2196019797FFF8CF91
:100A9000C0E0D0E020E087E190E0DE01022E0E947D
:100AA0006E0A2196019797FFF8CFDF91CF910895B5
:100AB000CF92DF92EF92FF920F931F93CF93DF932A
:100AC000CDB7DEB768970FB6F894DEBF0FBECDBFC7
:100AD000CC24DD2438E1E32E30E0F32E80E890E0F2
:100AE0000E94ED0900E010E00E94E809BC01802F9F
:100AF0000E94CC030F5F1F4F08311105ACF347E58F
:100B000052E088E19E012F5F3F4FDA01F901982FF3
:100B100001900D929A95E1F7D701FA01182E0E94E3
:100B20007A0A88E190E0E80EF91E8AE090E00E94DF
:100B3000AF050894C11CD11C94E1C916D10494F2EC
:100B400068960FB6F894DEBF0FBECDBFDF91CF9190
:100B50001F910F91FF90EF90DF90CF900895CF936A
:100B6000DF93AC0120E030E0A0EABFE0C0E0D0E0DD
:100B7000CD010197F1F72F5F3F4F42175307C0F7A1
:100B8000DF91CF9108959B01AC0110923202109237
:100B90003302109234021092350280913202909109
:100BA0003302A0913402B0913502281739074A0761
:100BB0005B0798F70895982F8154863010F4975367
:100BC00005C0892F8156863020F49755892F9927A3
:100BD0000895892F80538A3010F49927089580E072
:100BE00090E00895DF92EF92FF920F931F93CF93BF
:100BF000DF937C01DC018D919C91009721F04D9752
:100C000009F477C087C080911A0290911B02A091CD
:100C10001C02B0911D020097A105B10561F001977A
:100C2000A109B10980931A0290931B02A0931C02A0
:100C3000B0931D0251C0DD24CD2DDD27CC0FDD1F6B
:100C40008E0106541E4FF8016081718177FF02C04A
:100C5000615C7F4F86E0759567958A95E1F78D2DEC
:100C60000E94CC03FE01E651FE4FD8018D919C916C
:100C7000119720813181820F931F8D939C93815C0A
:100C80009F4334F088279927821B930B918380839D
:100C9000D8018D919C9197FF1AC02081318185E404
:100CA0009FEF289FA001299F500D389F500D1124C0
:100CB000CA019A0157FF02C021583F4F2078821B7A
:100CC000930B0A9691838083D8011D921C92D39432
:100CD000B7E1BD1508F0B0CF109232021092330286
:100CE00010923402109235028DE190E0F701918369
:100CF00080838091320290913302A0913402B091AE
:100D0000350286399105A105B10508F07CCF80E058
:100D100090E005C0D7011D921C9282E090E0DF9127
:100D2000CF911F910F91FF90EF90DF900895EF9278
:100D3000FF920F931F93CF93DF937C01EC01888187
:100D40009981009731F08197D1F0DDC180E090E08A
:100D5000DFC11092B7011092B8011092B90140E8BA
:100D600050E060E070E089E792E00E94F80981E2DB
:100D70000E94250481E290E0F701918380838091B5
:100D8000B301813019F70E94640480E197E2A0E08A
:100D9000B0E080931A0290931B02A0931C02B093C0
:100DA0001D029091B701E92FFF27E758FD4F808181
:100DB000282F33279F5F9093B7012A35310509F417
:100DC0008CC12B3531050CF041C02634310509F4B6
:100DD000E5C027343105CCF42334310509F4C4C00F
:100DE000243431054CF42D30310509F4B2CF2134CF
:100DF000310509F46AC082C12434310509F470C197
:100E00002534310509F415C179C12235310509F4BC
:100E1000DAC0233531054CF42734310509F4A1C07B
:100E20002934310509F4CCC069C12735310509F4ED
:100E30001EC1283531052CF42335310509F44FC086
:100E40005DC12935310509F40FC158C12736310577
:100E500009F47CC028363105C4F42436310509F480
:100E60003FC12536310544F42136310571F1233671
:100E7000310509F479C042C12536310509F4D9C0DC
:100E80002636310509F48AC039C12337310539F1D5
:100E9000243731054CF42936310509F491C0223745
:100EA000310509F490C02AC12937310509F4DCC0A5
:100EB0002A3731052CF42737310509F4D8C01EC173
:100EC0002A37310509F409C119C10E948404E7E5F4
:100ED000F2E0A0E0B0E088E1182E0E947A0A80914A
:100EE000B701E82FFF27DF01A758BD4F8C9188235A
:100EF00009F42FCFED018981882309F42ACFE7581F
:100F0000FD4F80810E94DB05082F112784E0000F30
:100F1000111F8A95E1F78091B701E82FFF27E75865
:100F2000FD4F81810E94DB05080F111D8091B801E2
:100F3000982F8F5F8093B801B801892F0E94CC034E
:100F40008091B7018E5F8093B701CBCF87EC90E0A3
:100F50000E9428048091AC010E94410484ED90E03D
:100F6000CFC01092AC01F5CE8091B701E82FFF27DA
:100F7000E758FD4F8081853619F40E943105E9CE8E
:100F800000E060E070E0802F0E94CC030F5F08312A
:100F9000C0F340E850E060E070E00DC000E06FEFAB
:100FA00070E0802F0E94CC030F5F0831C0F340E84F
:100FB00050E06FEF70E089E792E00E94F809C9CE37
:100FC00087ED90E09DC08091B4018823C1F4082F83
:100FD000C82FCC2339F060E070E0802F0E94CC0352
:100FE000CF5F06C06FEF70E0802F0E94CC03C1502E
:100FF0000F5F083170F38091B4018F5F17C000E07C
:10100000C02FCC2339F460E070E0802F0E94CC0325
:10101000C15006C06FEF70E0802F0E94CC03CF5FFD
:101020000F5F083170F38091B40181508093B40157
:1010300090CE8091B701E82FFF27E758FD4F8081C0
:10104000823719F08081823519F40E94AD0481CE77
:101050008081803719F08081803519F40E949004D6
:1010600078CE80EF90E04CC00E94580572CE88E1A7
:1010700090E00E948F089093B6018093B501892B70
:1010800049F180E890E00E94ED091092B901809149
:10109000B9010091B5011091B601080F111D0E9410
:1010A000E809F80180838091B9018F5F8093B901CD
:1010B000883168F3E091B501F091B60188E1A7E5C8
:1010C000B2E001900D928A95E1F784E690E00E94EB
:1010D000AF05DBCF89EF90E013C00E949004FDCFF5
:1010E000C7E5D2E000E289910E94410486E091E0E8
:1010F0000E942804015007FFF6CF2BCE8AE091E032
:101100000E94280426CEE7011982188282E090E02E
:10111000DF91CF911F910F91FF90EF900895CF93A2
:10112000DF93AC01029710F442E050E020E030E0A1
:10113000A091FB02B091FC02BD01F901109709F4E6
:101140004CC08D919C9111978417950731F14817E8
:10115000590738F42115310519F08217930708F45F
:101160009C01FD01A281B381109759F7211531052A
:10117000A1F1C901841B950B049708F4A901DB01B7
:10118000E0E0F0E0109749F18D919C911197821762
:101190009307F9F44217530779F4ED018A819B8193
:1011A000309719F09383828304C09093FC0280935C
:1011B000FB02CD0102964AC0241B350BFD01E20F54
:1011C000F31F41935193225030402D933C93CF0114
:1011D0003DC0FD01A281B381D5CF8091F9029091EC
:1011E000FA02892B41F480911E0190911F01909386
:1011F000FA028093F902E0911C01F0911D013097F1
:1012000041F4EDB7FEB78091200190912101E81BD8
:10121000F90BA091F902B091FA029F012A1B3B0B36
:101220002417350788F0CA0102962817390760F09D
:10123000CD01840F951F02969093FA028093F902D4
:101240004D935D93CD0102C080E090E0DF91CF919E
:101250000895CF93DF93009709F454C0DC011297EF
:10126000ED011B821A828091FB029091FC02009793
:1012700021F1FC0140E050E0EA17FB0718F1ED0115
:10128000FB83EA832D913C911197C20FD31FCE01AE
:1012900002968E179F0771F48A819B81280F391F50
:1012A0002E5F3F4F11963C932E9382819381FD01D7
:1012B000938382834115510559F4B093FC02A093A6
:1012C000FB0220C0AF010280F381E02D3097A1F630
:1012D000EA01BB83AA83CA01029628813981820F61
:1012E000931F8A179B0771F48D919C911197280F7A
:1012F000391F2E5F3F4F39832883FD0182819381FF
:101300009B838A83DF91CF910895AF92BF92CF9252
:10131000DF92EF92FF920F931F93CF93DF93EC0135
:10132000E880F9800A811B81C801B7012DE133EF04
:1013300041E050E00E94470A59016A01C801B70123
:101340002DE133EF41E050E00E94470ADC01CB0180
:10135000BC01CD0127EA31E440E050E00E94870A59
:101360007B018C01C601B50124E13BE040E050E087
:101370000E94870ADC01CB01E81AF90A0A0B1B0B51
:101380001E141F041006110644F08FEF9FEFAFEFFD
:10139000BFE7E80EF91E0A1F1B1FE882F9820A83C5
:1013A0001B838FEF9FE7A0E0B0E0E822F9220A2339
:1013B0001B23C701DF91CF911F910F91FF90EF90F9
:1013C000DF90CF90BF90AF9008950E948509089557
:1013D00082E291E00E9485090895AA27BB278093A5
:1013E000220190932301A0932401B0932501089535
:1013F000DC0140FF03C001C06D936D93425050402B
:10140000D8F70895FB019F01E8944230C4F04532BB
:10141000B4F44A3029F497FB1EF4909581959F4FC0
:10142000642F77270E94330A805D8A330CF0895D30
:101430008193CB010097A1F716F45DE251931082DE
:10144000C9010C94230ADC01FC0101900020E9F79A
:101450003297AE17BF0730F47C916081708331976B
:101460006D93F7CF0895AA1BBB1B51E107C0AA1FBC
:10147000BB1FA617B70710F0A61BB70B881F991F35
:101480005A95A9F780959095BC01CD010895A1E2E8
:101490001A2EAA1BBB1BFD010DC0AA1FBB1FEE1FEE
:1014A000FF1FA217B307E407F50720F0A21BB30B39
:1014B000E40BF50B661F771F881F991F1A9469F7B5
:1014C00060957095809590959B01AC01BD01CF0111
:1014D000089515D001921A94E1F70895E199FECF8D
:1014E000BFBBAEBB0DBA11960FB6F894E29AE19A63
:1014F0000FBE08950190F2DF1A94E1F70895E19983
:10150000FECFBFBBAEBBE09A11960DB20895629FAD
:10151000D001739FF001829FE00DF11D649FE00DEB
:10152000F11D929FF00D839FF00D749FF00D659F4C
:10153000F00D9927729FB00DE11DF91F639FB00D4B
:0C154000E11DF91FBD01CF011124089529
:10154C000A0D00626C307267776172652066697291
:10155C006D7761726520302E310A0D006F6B0A0DAC
:10156C000003000A0D00656570726F6D206E6F745C
:10157C002072656164790A0D0070726F672E2065A8
:10158C006570726F6D28657869742077697468204E
:10159C0078290A0D00636C656172696E6720656558
:1015AC0070726F6D0A0D004572726F7220666C61FD
:1015BC00673A20000D0A00626C30726777617265C1
:1015CC00206669726D7761726520302E310A0D00CC
:1015DC0072206F7220700A0D006D656D6F7279202C
:1015EC006C6F770A0D00210A0D00556E6B6E6F77CC
:1015FC006E20636F6D6D616E640A0D000000FD025C
:06160C00200001000000B7
:00000001FF
